{
  "_format": "hh-sol-artifact-1",
  "contractName": "Swap",
  "sourceName": "contracts/Swap.sol",
  "abi": [
    {
      "anonymous": false,
      "inputs": [
        {
          "indexed": true,
          "internalType": "bytes32",
          "name": "secretHash",
          "type": "bytes32"
        },
        {
          "indexed": true,
          "internalType": "address",
          "name": "claimer",
          "type": "address"
        },
        {
          "indexed": false,
          "internalType": "address",
          "name": "claimToken",
          "type": "address"
        },
        {
          "indexed": false,
          "internalType": "uint256",
          "name": "claimAmt",
          "type": "uint256"
        }
      ],
      "name": "Claim",
      "type": "event"
    },
    {
      "anonymous": false,
      "inputs": [
        {
          "indexed": true,
          "internalType": "address",
          "name": "creator",
          "type": "address"
        },
        {
          "components": [
            {
              "internalType": "address",
              "name": "recipient",
              "type": "address"
            },
            {
              "internalType": "address",
              "name": "tokenDeposit",
              "type": "address"
            },
            {
              "internalType": "address",
              "name": "tokenDesire",
              "type": "address"
            },
            {
              "internalType": "uint256",
              "name": "amountDeposit",
              "type": "uint256"
            },
            {
              "internalType": "uint256",
              "name": "amountDesire",
              "type": "uint256"
            },
            {
              "internalType": "uint256",
              "name": "networkDeposit",
              "type": "uint256"
            },
            {
              "internalType": "uint256",
              "name": "networkDesire",
              "type": "uint256"
            }
          ],
          "indexed": false,
          "internalType": "struct Swap.DepositReq",
          "name": "req",
          "type": "tuple"
        }
      ],
      "name": "Deposit",
      "type": "event"
    },
    {
      "anonymous": false,
      "inputs": [
        {
          "indexed": true,
          "internalType": "address",
          "name": "previousOwner",
          "type": "address"
        },
        {
          "indexed": true,
          "internalType": "address",
          "name": "newOwner",
          "type": "address"
        }
      ],
      "name": "OwnershipTransferred",
      "type": "event"
    },
    {
      "anonymous": false,
      "inputs": [
        {
          "indexed": true,
          "internalType": "address",
          "name": "payer",
          "type": "address"
        },
        {
          "indexed": true,
          "internalType": "bytes32",
          "name": "secretHash",
          "type": "bytes32"
        },
        {
          "indexed": true,
          "internalType": "address",
          "name": "payToken",
          "type": "address"
        },
        {
          "indexed": false,
          "internalType": "uint256",
          "name": "payAmount",
          "type": "uint256"
        }
      ],
      "name": "PayInvoice",
      "type": "event"
    },
    {
      "inputs": [
        {
          "internalType": "uint256",
          "name": "secret",
          "type": "uint256"
        }
      ],
      "name": "claim",
      "outputs": [],
      "stateMutability": "nonpayable",
      "type": "function"
    },
    {
      "inputs": [
        {
          "internalType": "bytes32",
          "name": "",
          "type": "bytes32"
        },
        {
          "internalType": "address",
          "name": "",
          "type": "address"
        }
      ],
      "name": "claimInfo",
      "outputs": [
        {
          "internalType": "bool",
          "name": "",
          "type": "bool"
        }
      ],
      "stateMutability": "view",
      "type": "function"
    },
    {
      "inputs": [
        {
          "internalType": "bytes32",
          "name": "secretHash",
          "type": "bytes32"
        },
        {
          "components": [
            {
              "internalType": "address",
              "name": "recipient",
              "type": "address"
            },
            {
              "internalType": "address",
              "name": "tokenDeposit",
              "type": "address"
            },
            {
              "internalType": "address",
              "name": "tokenDesire",
              "type": "address"
            },
            {
              "internalType": "uint256",
              "name": "amountDeposit",
              "type": "uint256"
            },
            {
              "internalType": "uint256",
              "name": "amountDesire",
              "type": "uint256"
            },
            {
              "internalType": "uint256",
              "name": "networkDeposit",
              "type": "uint256"
            },
            {
              "internalType": "uint256",
              "name": "networkDesire",
              "type": "uint256"
            }
          ],
          "internalType": "struct Swap.DepositReq",
          "name": "req",
          "type": "tuple"
        }
      ],
      "name": "deposit",
      "outputs": [],
      "stateMutability": "nonpayable",
      "type": "function"
    },
    {
      "inputs": [
        {
          "internalType": "address",
          "name": "tokenDesire",
          "type": "address"
        },
        {
          "internalType": "address",
          "name": "recipient",
          "type": "address"
        },
        {
          "internalType": "uint256",
          "name": "amountDesire",
          "type": "uint256"
        },
        {
          "internalType": "uint256",
          "name": "networkDesire",
          "type": "uint256"
        },
        {
          "internalType": "bytes32",
          "name": "secretHash",
          "type": "bytes32"
        }
      ],
      "name": "depositEth",
      "outputs": [],
      "stateMutability": "payable",
      "type": "function"
    },
    {
      "inputs": [
        {
          "internalType": "bytes32",
          "name": "",
          "type": "bytes32"
        }
      ],
      "name": "depositInfo",
      "outputs": [
        {
          "internalType": "bool",
          "name": "paid",
          "type": "bool"
        },
        {
          "internalType": "uint256",
          "name": "create",
          "type": "uint256"
        }
      ],
      "stateMutability": "view",
      "type": "function"
    },
    {
      "inputs": [],
      "name": "getChain",
      "outputs": [
        {
          "internalType": "uint256",
          "name": "",
          "type": "uint256"
        }
      ],
      "stateMutability": "view",
      "type": "function"
    },
    {
      "inputs": [],
      "name": "invoiceCount",
      "outputs": [
        {
          "internalType": "uint256",
          "name": "",
          "type": "uint256"
        }
      ],
      "stateMutability": "view",
      "type": "function"
    },
    {
      "inputs": [],
      "name": "lockTime",
      "outputs": [
        {
          "internalType": "uint256",
          "name": "",
          "type": "uint256"
        }
      ],
      "stateMutability": "view",
      "type": "function"
    },
    {
      "inputs": [],
      "name": "owner",
      "outputs": [
        {
          "internalType": "address",
          "name": "",
          "type": "address"
        }
      ],
      "stateMutability": "view",
      "type": "function"
    },
    {
      "inputs": [
        {
          "internalType": "uint256",
          "name": "secret",
          "type": "uint256"
        }
      ],
      "name": "payInvoice",
      "outputs": [],
      "stateMutability": "payable",
      "type": "function"
    },
    {
      "inputs": [],
      "name": "renounceOwnership",
      "outputs": [],
      "stateMutability": "nonpayable",
      "type": "function"
    },
    {
      "inputs": [
        {
          "internalType": "uint256",
          "name": "_lockTime",
          "type": "uint256"
        }
      ],
      "name": "setLockTime",
      "outputs": [],
      "stateMutability": "nonpayable",
      "type": "function"
    },
    {
      "inputs": [
        {
          "internalType": "uint256",
          "name": "secret",
          "type": "uint256"
        }
      ],
      "name": "toHash",
      "outputs": [
        {
          "internalType": "bytes32",
          "name": "",
          "type": "bytes32"
        }
      ],
      "stateMutability": "pure",
      "type": "function"
    },
    {
      "inputs": [
        {
          "internalType": "address",
          "name": "newOwner",
          "type": "address"
        }
      ],
      "name": "transferOwnership",
      "outputs": [],
      "stateMutability": "nonpayable",
      "type": "function"
    },
    {
      "inputs": [
        {
          "internalType": "bytes32",
          "name": "",
          "type": "bytes32"
        },
        {
          "internalType": "uint256",
          "name": "",
          "type": "uint256"
        }
      ],
      "name": "userDeposit",
      "outputs": [
        {
          "internalType": "address",
          "name": "creator",
          "type": "address"
        },
        {
          "components": [
            {
              "internalType": "address",
              "name": "recipient",
              "type": "address"
            },
            {
              "internalType": "address",
              "name": "tokenDeposit",
              "type": "address"
            },
            {
              "internalType": "address",
              "name": "tokenDesire",
              "type": "address"
            },
            {
              "internalType": "uint256",
              "name": "amountDeposit",
              "type": "uint256"
            },
            {
              "internalType": "uint256",
              "name": "amountDesire",
              "type": "uint256"
            },
            {
              "internalType": "uint256",
              "name": "networkDeposit",
              "type": "uint256"
            },
            {
              "internalType": "uint256",
              "name": "networkDesire",
              "type": "uint256"
            }
          ],
          "internalType": "struct Swap.DepositReq",
          "name": "deposit",
          "type": "tuple"
        }
      ],
      "stateMutability": "view",
      "type": "function"
    },
    {
      "stateMutability": "payable",
      "type": "receive"
    }
  ],
  "bytecode": "0x608060405234801561001057600080fd5b50600160005561001f33610024565b610076565b600180546001600160a01b038381166001600160a01b0319831681179093556040519116919082907f8be0079c531659141344cd1fd0a4f28419497f9722a3daafe3b4186f6b6457e090600090a35050565b611987806100856000396000f3fe6080604052600436106100ec5760003560e01c8063950b6ccc1161008a578063c0b52b7211610059578063c0b52b7214610275578063ca1aa69a14610295578063f2fde38b146102e6578063fd56d68d1461030657600080fd5b8063950b6ccc146101d7578063ac60a6cd146101f7578063ae04d45d1461020a578063b5d46cfd1461022a57600080fd5b8063379607f5116100c6578063379607f51461014a57806343c8af041461016c578063715018a61461019a5780638da5cb5b146101af57600080fd5b80630d668087146100f85780631346f0c41461012157806332e21ae71461013757600080fd5b366100f357005b600080fd5b34801561010457600080fd5b5061010e60025481565b6040519081526020015b60405180910390f35b34801561012d57600080fd5b5061010e60035481565b34801561014357600080fd5b504661010e565b34801561015657600080fd5b5061016a610165366004611602565b610319565b005b34801561017857600080fd5b5061018c61018736600461161b565b610784565b60405161011892919061168f565b3480156101a657600080fd5b5061016a61081f565b3480156101bb57600080fd5b506001546040516001600160a01b039091168152602001610118565b3480156101e357600080fd5b5061016a6101f23660046116c9565b610833565b61016a610205366004611602565b610841565b34801561021657600080fd5b5061016a610225366004611602565b610c71565b34801561023657600080fd5b5061026561024536600461178c565b600660209081526000928352604080842090915290825290205460ff1681565b6040519015158152602001610118565b34801561028157600080fd5b5061010e610290366004611602565b610cc2565b3480156102a157600080fd5b506102cf6102b0366004611602565b6005602052600090815260409020805460019091015460ff9091169082565b604080519215158352602083019190915201610118565b3480156102f257600080fd5b5061016a6103013660046117b8565b610d22565b61016a6103143660046117d3565b610d98565b610321610e3a565b600061032c82610cc2565b600081815260066020908152604080832033845290915290205490915060ff16156103905760405162461bcd60e51b815260206004820152600f60248201526e105b1c9958591e4818db185a5b5959608a1b60448201526064015b60405180910390fd5b600081815260046020908152604080832080548251818502810185019093528083529192909190849084015b828210156104575760008481526020908190206040805180820182526008860290920180546001600160a01b039081168452825160e0810184526001808401548316825260028401548316828801526003840154909216938101939093526004820154606084015260058201546080840152600682015460a084015260079091015460c08301528284019190915290835290920191016103bc565b50505050905060008151116104a45760405162461bcd60e51b8152602060048201526013602482015272092dcecc2d8d2c840e6cac6e4cae840d0c2e6d606b1b6044820152606401610387565b6000816000815181106104b9576104b9611820565b6020908102919091018101518101516000858152600590925260409091205490915060ff166105155760405162461bcd60e51b8152602060048201526008602482015267139bdd081c185a5960c21b6044820152606401610387565b60008260008151811061052a5761052a611820565b6020026020010151600001516001600160a01b0316336001600160a01b031614905060008161055d578260a00151610563565b8260c001515b90504681146105a45760405162461bcd60e51b815260206004820152600d60248201526c24b73b30b634b21031b430b4b760991b6044820152606401610387565b6000826105b55783602001516105bb565b83604001515b90506000805b86518163ffffffff1610156106ac5760008561060457878263ffffffff16815181106105ef576105ef611820565b60200260200101516020015160000151610629565b878263ffffffff168151811061061c5761061c611820565b6020026020010151600001515b9050336001600160a01b0382160361069b578561066d57878263ffffffff168151811061065857610658611820565b60200260200101516020015160600151610696565b878263ffffffff168151811061068557610685611820565b602002602001015160200151608001515b830192505b506106a58161184c565b90506105c1565b508015610708576001600160a01b0382166106f457604051339082156108fc029083906000818181858888f193505050501580156106ee573d6000803e3d6000fd5b50610708565b6107086001600160a01b0383163383610e93565b60008781526006602090815260408083203380855290835292819020805460ff1916600117905580516001600160a01b038616815291820184905289917fa45c018c08cffc1e5d85864e334de0f820678cb0f6278a9ee5ed170b2b3d94d7910160405180910390a3505050505050506107816001600055565b50565b600460205281600052604060002081815481106107a057600080fd5b600091825260209182902060089091020180546040805160e08101825260018401546001600160a01b039081168252600285015481169582019590955260038401548516918101919091526004830154606082015260058301546080820152600683015460a082015260079092015460c0830152919091169250905082565b610827610efb565b6108316000610f55565b565b61083d8282610fa7565b5050565b610849610e3a565b600061085482610cc2565b9050600060046000838152602001908152602001600020805480602002602001604051908101604052809291908181526020016000905b828210156109265760008481526020908190206040805180820182526008860290920180546001600160a01b039081168452825160e0810184526001808401548316825260028401548316828801526003840154909216938101939093526004820154606084015260058201546080840152600682015460a084015260079091015460c083015282840191909152908352909201910161088b565b505050509050600081511161096c5760405162461bcd60e51b815260206004820152600c60248201526b2737903232b837b9b4ba37b960a11b6044820152606401610387565b60008160008151811061098157610981611820565b6020026020010151602001519050336001600160a01b031681600001516001600160a01b0316146109e35760405162461bcd60e51b815260206004820152600c60248201526b2737ba103932b1b2b4bb32b960a11b6044820152606401610387565b468160c0015114610a265760405162461bcd60e51b815260206004820152600d60248201526c24b73b30b634b21031b430b4b760991b6044820152606401610387565b6000838152600560205260409020805460ff1615610a755760405162461bcd60e51b815260206004820152600c60248201526b105b1c9958591e481c185a5960a21b6044820152606401610387565b426002548260010154610a88919061186f565b1115610acb5760405162461bcd60e51b81526020600482015260126024820152714572726f723a206c6f636b65642074696d6560701b6044820152606401610387565b805460ff191660011781556000805b84518163ffffffff161015610b51576000858263ffffffff1681518110610b0357610b03611820565b6020026020010151602001519050336001600160a01b031681600001516001600160a01b031603610b40576080810151610b3d908461186f565b92505b50610b4a8161184c565b9050610ada565b508015610c105760408301516001600160a01b0316610bf65780341015610bba5760405162461bcd60e51b815260206004820152601a60248201527f496e7375666669656e7420646573697265642062616c616e63650000000000006044820152606401610387565b336108fc610bc88334611882565b6040518115909202916000818181858888f19350505050158015610bf0573d6000803e3d6000fd5b50610c10565b6040830151610c10906001600160a01b0316333084611334565b82604001516001600160a01b031685336001600160a01b03167fef7529792b20871fb42c39c3849a51708f3ac6de08ac5d33ad06b2507e6aa9c184604051610c5a91815260200190565b60405180910390a450505050506107816001600055565b610c79610efb565b60008111610cbd5760405162461bcd60e51b8152602060048201526011602482015270496e76616c6964206c6f636b2074696d6560781b6044820152606401610387565b600255565b60006002610ccf83611372565b604051610cdc91906118b9565b602060405180830381855afa158015610cf9573d6000803e3d6000fd5b5050506040513d601f19601f82011682018060405250810190610d1c91906118d5565b92915050565b610d2a610efb565b6001600160a01b038116610d8f5760405162461bcd60e51b815260206004820152602660248201527f4f776e61626c653a206e6577206f776e657220697320746865207a65726f206160448201526564647265737360d01b6064820152608401610387565b61078181610f55565b60003411610ddb5760405162461bcd60e51b815260206004820152601060248201526f092dce6eaccccd2c6d2cadce8408aa8960831b6044820152606401610387565b610e33816040518060e00160405280876001600160a01b0316815260200160006001600160a01b03168152602001886001600160a01b0316815260200134815260200186815260200146815260200185815250610fa7565b5050505050565b600260005403610e8c5760405162461bcd60e51b815260206004820152601f60248201527f5265656e7472616e637947756172643a207265656e7472616e742063616c6c006044820152606401610387565b6002600055565b6040516001600160a01b038316602482015260448101829052610ef690849063a9059cbb60e01b906064015b60408051601f198184030181529190526020810180516001600160e01b03166001600160e01b03199093169290921790915261139c565b505050565b6001546001600160a01b031633146108315760405162461bcd60e51b815260206004820181905260248201527f4f776e61626c653a2063616c6c6572206973206e6f7420746865206f776e65726044820152606401610387565b600180546001600160a01b038381166001600160a01b0319831681179093556040519116919082907f8be0079c531659141344cd1fd0a4f28419497f9722a3daafe3b4186f6b6457e090600090a35050565b6000828152600560209081526040808320600483528184208054835181860281018601909452808452919493909190849084015b828210156110765760008481526020908190206040805180820182526008860290920180546001600160a01b039081168452825160e0810184526001808401548316825260028401548316828801526003840154909216938101939093526004820154606084015260058201546080840152600682015460a084015260079091015460c0830152828401919091529083529092019101610fdb565b5050505090508160010154600014806110a0575042600254836001015461109d919061186f565b10155b6110e25760405162461bcd60e51b8152602060048201526013602482015272092dcecc2d8d2c840e6cac6e4cae840d0c2e6d606b1b6044820152606401610387565b80511580611127575082602001516001600160a01b03168160008151811061110c5761110c611820565b602002602001015160200151602001516001600160a01b0316145b61116b5760405162461bcd60e51b815260206004820152601560248201527424b73b30b634b2103232b837b9b4ba103a37b5b2b760591b6044820152606401610387565b60208301516001600160a01b0316156111a6576111a63330856060015186602001516001600160a01b0316611334909392919063ffffffff16565b600160005b82518163ffffffff16101561120f57336001600160a01b0316838263ffffffff16815181106111dc576111dc611820565b6020026020010151600001516001600160a01b0316036111ff576000915061120f565b6112088161184c565b90506111ab565b5080156112d9576000858152600460208181526040808420815180830183523381528084018a8152825460018082018555938852968590209151600890970290910180546001600160a01b03199081166001600160a01b039889161782559151805193820180548416948916949094179093559382015160028501805483169188169190911790559181015160038401805490931695169490941790556060830151918101919091556080820151600582015560a0820151600682015560c0909101516007909101555b82600101546000036112ec574260018401555b336001600160a01b03167f133e7ff8066a6ed4d7f3a459b434867781a89e4a4a11c65400b6796b9b64c0a98560405161132591906118ee565b60405180910390a25050505050565b6040516001600160a01b038085166024830152831660448201526064810182905261136c9085906323b872dd60e01b90608401610ebf565b50505050565b60408051602080825281830190925260609160208201818036833750505060208101929092525090565b60006113f1826040518060400160405280602081526020017f5361666545524332303a206c6f772d6c6576656c2063616c6c206661696c6564815250856001600160a01b031661146e9092919063ffffffff16565b805190915015610ef6578080602001905181019061140f91906118fc565b610ef65760405162461bcd60e51b815260206004820152602a60248201527f5361666545524332303a204552433230206f7065726174696f6e20646964206e6044820152691bdd081cdd58d8d9595960b21b6064820152608401610387565b606061147d8484600085611487565b90505b9392505050565b6060824710156114e85760405162461bcd60e51b815260206004820152602660248201527f416464726573733a20696e73756666696369656e742062616c616e636520666f6044820152651c8818d85b1b60d21b6064820152608401610387565b600080866001600160a01b0316858760405161150491906118b9565b60006040518083038185875af1925050503d8060008114611541576040519150601f19603f3d011682016040523d82523d6000602084013e611546565b606091505b509150915061155787838387611564565b925050505b949350505050565b606083156115d35782516000036115cc576001600160a01b0385163b6115cc5760405162461bcd60e51b815260206004820152601d60248201527f416464726573733a2063616c6c20746f206e6f6e2d636f6e74726163740000006044820152606401610387565b508161155c565b61155c83838151156115e85781518083602001fd5b8060405162461bcd60e51b8152600401610387919061191e565b60006020828403121561161457600080fd5b5035919050565b6000806040838503121561162e57600080fd5b50508035926020909101359150565b60018060a01b0380825116835280602083015116602084015280604083015116604084015250606081015160608301526080810151608083015260a081015160a083015260c081015160c08301525050565b6001600160a01b03831681526101008101611480602083018461163d565b80356001600160a01b03811681146116c457600080fd5b919050565b6000808284036101008112156116de57600080fd5b8335925060e0601f19820112156116f457600080fd5b5060405160e0810181811067ffffffffffffffff8211171561172657634e487b7160e01b600052604160045260246000fd5b604052611735602085016116ad565b8152611743604085016116ad565b6020820152611754606085016116ad565b60408201526080840135606082015260a0840135608082015260c084013560a082015260e084013560c0820152809150509250929050565b6000806040838503121561179f57600080fd5b823591506117af602084016116ad565b90509250929050565b6000602082840312156117ca57600080fd5b611480826116ad565b600080600080600060a086880312156117eb57600080fd5b6117f4866116ad565b9450611802602087016116ad565b94979496505050506040830135926060810135926080909101359150565b634e487b7160e01b600052603260045260246000fd5b634e487b7160e01b600052601160045260246000fd5b600063ffffffff80831681810361186557611865611836565b6001019392505050565b80820180821115610d1c57610d1c611836565b81810381811115610d1c57610d1c611836565b60005b838110156118b0578181015183820152602001611898565b50506000910152565b600082516118cb818460208701611895565b9190910192915050565b6000602082840312156118e757600080fd5b5051919050565b60e08101610d1c828461163d565b60006020828403121561190e57600080fd5b8151801515811461148057600080fd5b602081526000825180602084015261193d816040850160208701611895565b601f01601f1916919091016040019291505056fea2646970667358221220b47a4ce53e03d3ab516d92c440dcccab921a08a8d7fd2beb5c3a1936510b448264736f6c63430008120033",
  "linkReferences": {},
  "deployedLinkReferences": {}
}